:020000040800F2
:10400000005000206D560008A5550008AB5500086B
:10401000B1550008B7550008BD5500080000000064
:10402000000000000000000000000000C355000870
:10403000CF55000800000000DB550008E7550008D8
:10404000B5560008B5560008B5560008B556000824
:10405000B5560008B5560008B5560008B556000814
:10406000B5560008B5560008B5560008B556000804
:10407000B5560008B5560008B5560008F5550008B5
:10408000B5560008B5560008B5560008B5560008E4
:10409000B5560008B5560008B5560008B5560008D4
:1040A000B5560008B5560008B5560008B5560008C4
:1040B000B5560008B5560008B5560008B5560008B4
:1040C000B5560008B5560008B5560008B5560008A4
:1040D000B5560008B5560008B5560008B556000894
:1040E000B5560008B5560008B55600080000000097
:1040F00000000000000000000000000000000000C0
:0C41000000000000000000005FF808F163
:1041100010B5054C237833B9044B13B10448AFF301
:1041200000800123237010BD5C000020000000000F
:10413000E48F000808B5034B1BB103490348AFF3F4
:10414000008008BD0000000060000020E48F00082F
:1041500081F0004102E000BF83F0004330B54FEA38
:1041600041044FEA430594EA050F08BF90EA020FA5
:104170001FBF54EA000C55EA020C7FEA645C7FEA38
:10418000655C00F0E2804FEA5454D4EB5555B8BF5B
:104190006D420CDD2C4480EA020281EA030382EACC
:1041A000000083EA010180EA020281EA0303362D5E
:1041B00088BF30BD11F0004F4FEA01314FF4801C31
:1041C0004CEA113102D0404261EB410113F0004F43
:1041D0004FEA03334CEA133302D0524263EB4303FA
:1041E00094EA050F00F0A780A4F10104D5F1200E98
:1041F0000DDB02FA0EFC22FA05F2801841F10001F3
:1042000003FA0EF2801843FA05F359410EE0A5F1C6
:1042100020050EF1200E012A03FA0EFC28BF4CF0F7
:10422000020C43FA05F3C01851EBE37101F00045AD
:1042300007D54FF0000EDCF1000C7EEB00006EEBBA
:104240000101B1F5801F1BD3B1F5001F0CD3490844
:104250005FEA30004FEA3C0C04F101044FEA44529B
:1042600012F5800F80F09A80BCF1004F08BF5FEA22
:10427000500C50F1000041EB045141EA050130BD02
:104280005FEA4C0C404141EB0101013C28BFB1F514
:10429000801FE9D291F0000F04BF01460020B1FA5F
:1042A00081F308BF2033A3F10B03B3F120020CDA32
:1042B0000C3208DD02F1140CC2F10C0201FA0CF010
:1042C00021FA02F10CE002F11402D8BFC2F1200C75
:1042D00001FA02F120FA0CFCDCBF41EA0C0190402B
:1042E000E41AA2BF01EB0451294330BD6FEA040474
:1042F0001F3C1CDA0C340EDC04F11404C4F120025F
:1043000020FA04F001FA02F340EA030021FA04F370
:1043100045EA030130BDC4F10C04C4F1200220FAC7
:1043200002F001FA04F340EA0300294630BD21FA05
:1043300004F0294630BD94F0000F83F4801306BFCB
:1043400081F480110134013D4EE77FEA645C18BFBF
:104350007FEA655C29D094EA050F08BF90EA020F56
:1043600005D054EA000C04BF1946104630BD91EA4E
:10437000030F1EBF0021002030BD5FEA545C05D151
:104380004000494128BF41F0004130BD14F5800490
:104390003CBF01F5801130BD01F0004545F0FE4104
:1043A00041F470014FF0000030BD7FEA645C1ABF39
:1043B000194610467FEA655C1CBF0B46024650EA70
:1043C000013406BF52EA033591EA030F41F400219C
:1043D00030BD00BF90F0000F04BF0021704730B522
:1043E0004FF4806404F132044FF000054FF00001F7
:1043F00050E700BF90F0000F04BF0021704730B5B8
:104400004FF4806404F1320410F0004548BF40428C
:104410004FF000013EE700BF42004FEAE2014FEAE1
:1044200031014FEA02701FBF12F07F4393F07F4FBC
:1044300081F06051704732F07F4208BF704793F0BF
:104440007F4F04BF41F40021704730B54FF46074D2
:1044500001F0004521F000411CE700BF50EA0102D5
:1044600008BF704730B54FF000050AE050EA01027E
:1044700008BF704730B511F0004502D5404261EBEE
:1044800041014FF4806404F132045FEA915C3FF42F
:10449000D8AE4FF003025FEADC0C18BF03325FEACC
:1044A000DC0C18BF033202EBDC02C2F1200300FA7D
:1044B00003FC20FA02F001FA03FE40EA0E0021FAA2
:1044C00002F11444BDE600BF70B54FF0FF0C4CF490
:1044D000E06C1CEA11541DBF1CEA135594EA0C0F42
:1044E00095EA0C0F00F0DEF82C4481EA030621EA7D
:1044F0004C5123EA4C5350EA013518BF52EA0335B8
:1045000041F4801143F4801338D0A0FB02CE4FF069
:104510000005E1FB02E506F00042E0FB03E54FF099
:104520000006E1FB03569CF0000F18BF4EF0010E91
:10453000A4F1FF04B6F5007F64F5407404D25FEA8D
:104540004E0E6D4146EB060642EAC62141EA555140
:104550004FEAC52040EA5E504FEACE2EB4F1FD0C82
:1045600088BFBCF5E06F1ED8BEF1004F08BF5FEA00
:10457000500E50F1000041EB045170BD06F00046B2
:1045800046EA010140EA020081EA0301B4EB5C045F
:10459000C2BFD4EB0C0541EA045170BD41F4801157
:1045A0004FF0000E013C00F3AB8014F1360FDEBF7C
:1045B000002001F0004170BDC4F10004203C35DA58
:1045C0000C341BDC04F11404C4F1200500FA05F3DB
:1045D00020FA04F001FA05F240EA020001F000427C
:1045E00021F0004110EBD37021FA04F642EB0601F2
:1045F0005EEA430E08BF20EAD37070BDC4F10C041C
:10460000C4F1200500FA04F320FA05F001FA04F2DF
:1046100040EA020001F0004110EBD37041F10001CB
:104620005EEA430E08BF20EAD37070BDC4F12005D6
:1046300000FA05F24EEA020E20FA04F301FA05F23E
:1046400043EA020321FA04F001F0004121FA04F2E6
:1046500020EA020000EBD3705EEA430E08BF20EAB6
:10466000D37070BD94F0000F0FD101F000464000F0
:1046700041EB010111F4801F08BF013CF7D041EA72
:10468000060195F0000F18BF704703F00046520076
:1046900043EB030313F4801F08BF013DF7D043EA47
:1046A0000603704794EA0C0F0CEA135518BF95EAFD
:1046B0000C0F0CD050EA410618BF52EA4306D1D184
:1046C00081EA030101F000414FF0000070BD50EAA3
:1046D000410606BF1046194652EA430619D094EA2D
:1046E0000C0F02D150EA013613D195EA0C0F05D117
:1046F00052EA03361CBF104619460AD181EA03016B
:1047000001F0004141F0FE4141F470014FF0000022
:1047100070BD41F0FE4141F4780170BD70B54FF0BD
:10472000FF0C4CF4E06C1CEA11541DBF1CEA13553D
:1047300094EA0C0F95EA0C0F00F0A7F8A4EB05041F
:1047400081EA030E52EA03354FEA013100F0888016
:104750004FEA03334FF0805545EA131343EA1263DF
:104760004FEA022245EA111545EA10654FEA002694
:104770000EF000419D4208BF964244F1FD0404F54D
:10478000407402D25B084FEA3202B61A65EB0305A9
:104790005B084FEA32024FF480104FF4002CB6EB66
:1047A000020E75EB030E22BFB61A754640EA0C00E6
:1047B0005B084FEA3202B6EB020E75EB030E22BF26
:1047C000B61A754640EA5C005B084FEA3202B6EB67
:1047D000020E75EB030E22BFB61A754640EA9C0026
:1047E0005B084FEA3202B6EB020E75EB030E22BFF6
:1047F000B61A754640EADC0055EA060E18D04FEAB4
:10480000051545EA16754FEA06164FEAC30343EA53
:1048100052734FEAC2025FEA1C1CC0D111F4801F20
:104820000BD141EA00014FF000004FF0004CB6E719
:1048300011F4801F04BF01430020B4F1FD0C88BFB8
:10484000BCF5E06F3FF6AFAEB5EB030C04BFB6EBC3
:10485000020C5FEA500C50F1000041EB045170BDB6
:104860000EF0004E4EEA113114EB5C04C2BFD4EBE3
:104870000C0541EA045170BD41F480114FF0000E67
:10488000013C90E645EA060E8DE60CEA135594EAE3
:104890000C0F08BF95EA0C0F3FF43BAF94EA0C0FE6
:1048A0000AD150EA01347FF434AF95EA0C0F7FF45B
:1048B00025AF104619462CE795EA0C0F06D152EAAF
:1048C00003353FF4FDAE1046194622E750EA410693
:1048D00018BF52EA43067FF4C5AE50EA41047FF4A4
:1048E0000DAF52EA43057FF4EBAE12E74A0011D256
:1048F00012F5001211D20DD56FF47873B3EB62523A
:104900000ED44FEAC12343F0004343EA505323FA45
:1049100002F070474FF00000704750EA013002D1BA
:104920004FF0FF3070474FF0000070474FF0FF3CF2
:1049300006E000BF4FF0010C02E000BF4FF0010C99
:104940004DF804CD4FEA410C7FEA6C5C4FEA430C12
:1049500018BF7FEA6C5C1BD001B050EA410C0CBF61
:1049600052EA430C91EA030F02BF90EA020F0020C3
:10497000704710F1000F91EA030F58BF994208BF2A
:1049800090422CBFD8176FEAE37040F001007047E7
:104990004FEA410C7FEA6C5C02D150EA013C07D13E
:1049A0004FEA430C7FEA6C5CD6D152EA033CD3D089
:1049B0005DF8040B704700BF8446104662468C4683
:1049C0001946634600E000BF01B5FFF7B7FF0028B6
:1049D00048BF10F1000F01BD4DF808EDFFF7F4FFDF
:1049E0000CBF012000205DF808FB00BF4DF808ED6A
:1049F000FFF7EAFF34BF012000205DF808FB00BF8D
:104A00004DF808EDFFF7E0FF94BF012000205DF8AE
:104A100008FB00BF4DF808EDFFF7CEFF94BF012063
:104A200000205DF808FB00BF4DF808EDFFF7C4FF5C
:104A300034BF012000205DF808FB00BF4FEA410CA5
:104A40007FEA6C5C02D150EA013C0AD14FEA430C88
:104A50007FEA6C5C02D152EA033C02D14FF00000C5
:104A600070474FF00100704703460244934200D163
:104A7000704703F8011BF9E770B500260C4D0D4C8B
:104A8000641BA410A64209D104F0ACFA00260A4D1A
:104A90000A4C641BA410A64205D170BD55F8043B16
:104AA00098470136EEE755F8043B98470136F2E7A0
:104AB0004090000840900008409000084490000892
:104AC00080B500AF01F044FA00F054F800F0B2F8FD
:104AD00000F0CCF900F050F900F0E6F900F052FADD
:104AE00000F0E4FA00F0EAFC00F054FB00F0E4FD12
:104AF000002202211D4802F0FBF8002204211C487C
:104B000002F0F6F801221021184802F0F1F8002214
:104B10004FF40071164802F0EBF800224FF4807158
:104B2000134802F0E5F800228021114802F0E0F875
:104B3000002240210E4802F0DBF800224FF4007101
:104B40000B4802F0D5F800F0D1FD4FF4FA7001F0F7
:104B500061FA01224FF40071054802F0C9F800F033
:104B6000E7FD4FF4FA7001F055FAE6E7000801405E
:104B7000000C014080B594B000AF07F12803282253
:104B800000211846FFF770FF07F1140300221A6096
:104B90005A609A60DA601A613B1D00221A605A60FE
:104BA0009A60DA600123BB624FF48033FB6200231A
:104BB0003B630123BB6302237B644FF48033BB64FC
:104BC0004FF4E013FB6407F12803184601F046FA9E
:104BD0000346002B01D000F028F80F237B6102234D
:104BE000BB610023FB614FF480633B6200237B6267
:104BF00007F114030221184601F0B2FC0346002B12
:104C000001D000F012F802237B604FF40043FB60F8
:104C10003B1D184601F032FE0346002B01D000F088
:104C200004F800BF5037BD4680BD80B400AF72B6F7
:104C300000BFFEE780B588B000AF07F11003002287
:104C40001A605A609A60DA60474B9B69464A43F0A3
:104C500010039361444B9B6903F01003FB60FB68F6
:104C6000414B9B69404A43F0200393613E4B9B6953
:104C700003F02003BB60BB683B4B9B693A4A43F09F
:104C800004039361384B9B6903F004037B607B68EA
:104C9000354B9B69344A43F008039361324B9B695F
:104CA00003F008033B603B68002212212F4802F00A
:104CB0001FF800224CF204012D4802F019F80122DD
:104CC0004FF40041294802F013F801224FF47E719D
:104CD000274802F00DF84FF400533B6100237B613D
:104CE0000023BB6107F110031946224801F07CFE46
:104CF00048F212033B6101237B610023BB61022365
:104D0000FB6107F110031946184801F06DFE4CF2E3
:104D1000FC333B6101237B610023BB610223FB6108
:104D200007F110031946124801F05EFE4FF440539C
:104D30003B6100237B610023BB6107F1100319462F
:104D40000B4801F051FE4FF480533B6100237B611F
:104D50000023BB6107F110031946044801F044FE2B
:104D600000BF2037BD4680BD001002400008014052
:104D7000000C01400010014080B584B000AF3B1D25
:104D800000221A605A609A60184B194A1A60174B31
:104D900000229A60154B00221A73144B00221A75D8
:104DA000124B4FF46022DA61104B00225A600F4B15
:104DB00001221A610D4800F0B9FE0346002B01D014
:104DC000FFF733FF05237B600123BB600023FB60FB
:104DD0003B1D1946054800F081FF0346002B01D01A
:104DE000FFF723FF00BF1037BD4680BDB001002094
:104DF0000024014080B588B000AF786007F110034F
:104E000000221A605A609A60DA607B681B68144A54
:104E1000934221D1134B9B69124A43F4007393616F
:104E2000104B9B6903F40073FB60FB680D4B9B699F
:104E30000C4A43F0040393610A4B9B6903F004039B
:104E4000BB60BB6820233B6103237B6107F1100338
:104E50001946054801F0C8FD00BF2037BD4680BD9A
:104E600000240140001002400008014080B582B0DB
:104E700000AF0C4B5B690B4A43F001035361094BD4
:104E80005B6903F001037B607B68002200210F2037
:104E900002F083FA0F2002F09CFA00BF0837BD46EB
:104EA00080BD00BF0010024080B500AF124B134A16
:104EB0001A60114B124A5A600F4B00229A600E4B37
:104EC0000022DA600C4B4FF480421A610A4B002238
:104ED0005A61094B00229A61074B0022DA61064BA6
:104EE00000221A62044802F08FFA0346002B01D018
:104EF000FFF79BFE00BF80BDE0010020005800408E
:104F0000A086010080B588B000AF786007F110037B
:104F100000221A605A609A60DA607B681B68164A41
:104F2000934224D1154B9B69144A43F008039361C3
:104F3000124B9B6903F00803FB60FB684FF440636E
:104F40003B6112237B610323FB6107F110031946C8
:104F50000B4801F049FD094BDB69084A43F4800323
:104F6000D361064BDB6903F48003BB60BB6800BF01
:104F70002037BD4680BD00BF0058004000100240F1
:104F8000000C014080B58AB000AF07F11803002281
:104F90001A605A609A60DA6007F1100300221A6002
:104FA0005A603B4600221A605A609A60DA603D4BB4
:104FB0003D4A1A603B4B00225A603A4B00229A60ED
:104FC000384B4FF6FF72DA60364B00221A61354BD0
:104FD00000225A61334B00229A61324802F058FB9A
:104FE0000346002B01D0FFF720FE4FF48053BB6136
:104FF00007F1180319462B4803F010F80346002B5D
:1050000001D0FFF712FE274802F052FE0346002BA4
:1050100001D0FFF70AFE00233B6100237B6107F10B
:10502000100319461F4803F061FD0346002B01D011
:10503000FFF7FBFD00233B6001237B600023BB6087
:105040000023FB603B4600221946164802F088FE0A
:105050000346002B01D0FFF7E8FD3B46042219462A
:10506000104802F07DFE0346002B01D0FFF7DDFD66
:105070003B46082219460B4802F072FE0346002BFD
:1050800001D0FFF7D2FD3B460C221946054802F03D
:1050900067FE0346002B01D0FFF7C7FD00BF28378E
:1050A000BD4680BD34020020002C014080B58EB08A
:1050B00000AF07F1280300221A605A609A60DA6094
:1050C00007F1200300221A605A603B1D00221A607B
:1050D0005A609A60DA601A615A619A612C4B4FF0FB
:1050E00080421A602A4B00225A60294B00229A60A3
:1050F000274B5922DA60264B00221A61244B0022EA
:105100009A61234802F0C4FA0346002B01D0FFF74E
:105110008CFD4FF48053BB6207F1280319461C48ED
:1051200002F07CFF0346002B01D0FFF77EFD1848FC
:1051300002F0FDFA0346002B01D0FFF776FD0023B5
:105140003B6200237B6207F120031946104803F0FD
:10515000CDFC0346002B01D0FFF767FD60237B6089
:105160000023BB600023FB6000237B613B1D00220A
:105170001946074802F090FE0346002B01D0FFF7C6
:1051800054FD034800F030F900BF3837BD4680BDFC
:105190007C02002080B58EB000AF07F1280300220A
:1051A0001A605A609A60DA6007F1200300221A60E0
:1051B0005A603B1D00221A605A609A60DA601A61D8
:1051C0005A619A613D4B3E4A1A603C4B00225A603C
:1051D0003A4B00229A60394B4FF6FF72DA60374B38
:1051E00000221A61354B00229A61344802F050FACD
:1051F0000346002B01D0FFF718FD4FF48053BB622C
:1052000007F1280319462D4802F008FF0346002B3A
:1052100001D0FFF70AFD294802F089FA0346002B66
:1052200001D0FFF702FD00233B6200237B6207F100
:1052300020031946214803F059FC0346002B01D0F6
:10524000FFF7F3FC60237B600023BB600023FB605F
:1052500000237B613B1D00221946184802F01CFE0A
:105260000346002B01D0FFF7E0FC3B1D042219464A
:10527000124802F011FE0346002B01D0FFF7D5FCC7
:105280003B1D082219460D4802F006FE0346002B7E
:1052900001D0FFF7CAFC3B1D0C221946074802F05B
:1052A000FBFD0346002B01D0FFF7BFFC034800F0D5
:1052B0009BF800BF3837BD4680BD00BFC402002048
:1052C0000004004080B58AB000AF786007F1180391
:1052D00000221A605A609A60DA607B681B683C4A58
:1052E000934225D13B4B9B693A4A43F40063936157
:1052F000384B9B6903F400637B617B69354B9B6989
:10530000344A43F004039361324B9B6903F0040376
:105310003B613B694FF47063BB610023FB61002379
:105320003B6207F1180319462B4801F05DFB4AE088
:105330007B681B68B3F1804F34D1264BDB69254A6B
:1053400043F00103D361234BDB6903F00103FB60EE
:10535000FB68224B224A1A60204B10225A601F4BD6
:1053600000229A601D4B8022DA601C4B4FF4807241
:105370001A611A4B4FF480625A61184B20229A61CD
:10538000164B0022DA61154801F0CAFC0346002BD7
:1053900001D0FFF74AFC7B68104A5A620F4A7B68CB
:1053A000536210E07B681B680E4A93420BD1094B95
:1053B000DB69084A43F00203D361064BDB6903F063
:1053C0000203BB60BB6800BF2837BD4680BD00BF7D
:1053D000002C014000100240000801400C03002096
:1053E000580002400004004080B58AB000AF7860E9
:1053F00007F1180300221A605A609A60DA607B682D
:105400001B68B3F1804F18D1284B9B69274A43F0A2
:1054100004039361254B9B6903F004037B617B6963
:105420000123BB610223FB6102237B6207F11803A6
:1054300019461F4801F0D8FA34E07B681B681D4A02
:1054400093422FD1194B9B69184A43F0040393618F
:10545000164B9B6903F004033B613B69134B9B694B
:10546000124A43F008039361104B9B6903F0080351
:10547000FB60FB68C023BB610223FB6102237B62EC
:1054800007F1180319460A4801F0AEFA0323BB617D
:105490000223FB6102237B6207F1180319460648C9
:1054A00001F0A2FA00BF2837BD4680BD00100240BF
:1054B0000008014000040040000C014080B500AF2E
:1054C000114B124A1A60104B4FF4E1325A600E4BE6
:1054D00000229A600C4B0022DA600B4B00221A610A
:1054E000094B0C225A61084B00229A61064B00229C
:1054F000DA61054803F058FB0346002B01D0FFF7A3
:1055000094FB00BF80BD00BF50030020004400405A
:1055100080B588B000AF786007F1100300221A60F0
:105520005A609A60DA607B681B681B4A93422FD1ED
:105530001A4BDB69194A43F40033D361174BDB691B
:1055400003F40033FB60FB68144B9B69134A43F080
:1055500004039361114B9B6903F00403BB60BB68B8
:1055600004233B6102237B610323FB6107F11003EA
:1055700019460B4801F038FA08233B6100237B6190
:105580000023BB6107F110031946054801F02CFA0E
:1055900000BF2037BD4680BD0044004000100240DF
:1055A0000008014080B400AFFEE780B400AFFEE722
:1055B00080B400AFFEE780B400AFFEE780B400AF78
:1055C000FEE780B400AF00BFBD4680BC704780B42A
:1055D00000AF00BFBD4680BC704780B400AF00BFC5
:1055E000BD4680BC704780B500AF00F0F7FC00BF3F
:1055F00080BD000080B500AF024801F0C3FC00BFD1
:1056000080BD00BF0C03002080B485B000AF154BF7
:105610009B69144A43F001039361124B9B6903F0A9
:105620000103BB60BB680F4BDB690E4A43F080533C
:10563000D3610C4BDB6903F080537B607B680A4BC2
:105640005B68FB60FB6823F0E063FB60FB6843F092
:105650000073FB60044AFB68536000BF1437BD460B
:1056600080BC7047001002400000014000F050FA7A
:105670000B480C490C4A002302E0D458C4500433B0
:10568000C4188C42F9D3094A094C002301E0136085
:105690000432A242FBD3FFF7EFF9FFF711FA70478C
:1056A000000000205C000020489000085C00002002
:1056B0002C040020FEE7000080B483B000AF00237C
:1056C0007B6007E0084A7B68002122F813107B68A2
:1056D00001337B607B68472BF4D900BF00BF0C37D8
:1056E000BD4680BC704700BF9803002080B582B0E3
:1056F00000AF0D4B1B683B60386800F03DF8034677
:105700001A463A71C3F307227A71C3F30743BB7198
:105710007A680021054800F091F9044800F0D6F9B4
:1057200000BF0837BD4680BD0090000898030020E8
:1057300080B582B000AF00233B800023BB70002304
:10574000FB70386800F018F803461A463A71C3F344
:1057500007227A71C3F30743BB717A6800210548B9
:1057600000F06CF9034800F0B1F900BF0837BD46FE
:1057700080BD00BF980300202DE9B0438AB000AF80
:10578000786000233B7200237B720023BB72FB799D
:105790001846FEF72FFEA4A3D3E90023FEF794FEDC
:1057A00002460B46C7E90823BB79C3F164031846D8
:1057B000FEF720FED7E90823FEF786FE02460B46D9
:1057C000104619464FF00002994BFEF7A7FF02461C
:1057D0000B46C7E90623D7E90623D7E90801FEF7F8
:1057E000BBFC02460B4690469946BB881846FEF71E
:1057F00001FE4FF000028F4BFEF790FF02460B4672
:10580000104619464FF000024FF0804303F0B0FA03
:105810004FF00002884BFEF79FFC02460B461446F1
:1058200023F0004522462B464FF000008249FEF748
:1058300093FC02460B4640464946FEF745FE0246AB
:105840000B46C7E90423BB883B2B1DD8D7E90801C9
:10585000FFF74CF80346DBB27B72D7E90623D7E9A2
:105860000401FEF77BFC02460B4610461946FFF783
:105870003DF80346DBB23B72D7E90601FFF736F885
:105880000346DBB2BB72B5E0BB883B2B20D9BB889B
:10589000772B1DD8D7E90623D7E90401FEF75EFC74
:1058A00002460B4610461946FFF720F80346DBB2C6
:1058B0007B72D7E90801FFF719F80346DBB23B72A8
:1058C000D7E90601FFF712F80346DBB2BB7291E09D
:1058D000BB88772B20D9BB88B32B1DD8D7E906010D
:1058E000FFF704F80346DBB27B72D7E90801FEF745
:1058F000FDFF0346DBB23B72D7E90623D7E904017B
:10590000FEF72CFC02460B4610461946FEF7EEFF4A
:105910000346DBB2BB726DE0BB88B32B20D9BB88DA
:10592000EF2B1DD8D7E90601FEF7E0FF0346DBB2F7
:105930007B72D7E90623D7E90401FEF70FFC024684
:105940000B4610461946FEF7D1FF0346DBB23B7209
:10595000D7E90801FEF7CAFF0346DBB2BB7249E094
:10596000BB88EF2B21D9BB88B3F5967F1DD2D7E931
:105970000623D7E90401FEF7F1FB02460B46104669
:105980001946FEF7B3FF0346DBB27B72D7E9060187
:10599000FEF7ACFF0346DBB23B72D7E90801FEF726
:1059A000A5FF0346DBB2BB7224E0BB88B3F5967F4C
:1059B00020D3BB88B3F5B47F1CD2D7E90801FEF72A
:1059C00095FF0346DBB27B72D7E90601FEF78EFF37
:1059D0000346DBB23B72D7E90623D7E90401FEF7A1
:1059E000BDFB02460B4610461946FEF77FFF0346F5
:1059F000DBB2BB7207F10C0307F108021268114613
:105A000019800233120C1A7000233A7B62F30703E9
:105A10007A7B62F30F23BA7B62F317431846283769
:105A2000BD46BDE8B08300BF666666666666044034
:105A30000000594000004E400000F03F80B487B0A5
:105A400000AFF8600B467A60FB72FB7A002B38D10E
:105A50003B791A047B791B021343BA7913433B61E8
:105A60000023FB752AE0FB7D012202FA03F31A46AC
:105A70003B691340002B0FD0FB7DC3F11701FB7A6C
:105A80009A1C13465B001344DB000B445B00FA686E
:105A900013443B221A800EE0FB7DC3F11701FB7A11
:105AA0009A1C13465B001344DB000B445B00FA684E
:105AB00013441C221A80FB7D0133FB75FB7D172BE1
:105AC000D1D900BF1C37BD4680BC704780B582B0BD
:105AD00000AF786049237A680021034801F080FE16
:105AE00000BF0837BD4680BD7C02002080B582B073
:105AF00000AF78607B681B68B3F1804F03D1002151
:105B0000786802F00FF800BF0837BD4680BD00007E
:105B100080B400AF034B044A9A6000BFBD4680BC0E
:105B2000704700BF00ED00E00040000880B586B07F
:105B300000AF78600023FB7500233B610023BB604E
:105B40000023FB607B68002B01D10123BEE07B6852
:105B50009B68002B7B689B6A002B09D17B68002225
:105B6000DA627B68002283F824207868FFF742F924
:105B7000786800F0ABF90346FB757B689B6A03F01D
:105B80001003002B40F09980FB7D002B40F09580A6
:105B90007B689B6A23F4885323F0020343F00202DC
:105BA0007B689A627B685A687B68DB691A437B680A
:105BB0001B7B5B001343BA681343BB607B689B6825
:105BC000B3F5807F03D07B689B68012B02D14FF433
:105BD000807300E000233A6913433B617B681B7DBF
:105BE000012B19D17B681B7B002B09D17B689B693A
:105BF000013B5A033B69134343F400633B610BE0F1
:105C00007B689B6A43F020027B689A627B68DB6A50
:105C100043F001027B68DA627B681B685B6823F4EF
:105C200069417B681B683A690A435A607B681B6854
:105C30009A68284B13407A681268B9680B439360DE
:105C40007B689B68B3F5807F03D07B689B68012BE2
:105C500004D17B681B69013B1B05FB607B681B68EB
:105C6000DB6A23F470017B681B68FA680A43DA6216
:105C70007B681B689A68184B1340BA689A420BD12C
:105C80007B680022DA627B689B6A23F0030343F09F
:105C900001027B689A6218E07B689B6A23F012031A
:105CA00043F010027B689A627B68DB6A43F0010272
:105CB0007B68DA620123FB7507E07B689B6A43F02F
:105CC00010027B689A620123FB75FB7D184618372A
:105CD000BD4680BDFDF7E1FFFE0E1FFF80B485B01D
:105CE00000AF786039600023FB730023BB607B68E2
:105CF00093F82430012B01D10223DCE07B680122E0
:105D000083F824203B685B68062B1CD87B681B68E3
:105D1000596B3B685A6813469B001344053B1F228E
:105D200002FA03F3DB4319403B6818683B685A6882
:105D300013469B001344053B00FA03F27B681B6883
:105D40000A435A633CE03B685B680C2B1CD87B68B9
:105D50001B68196B3B685A6813469B001344233B2E
:105D60001F2202FA03F3DB4319403B6818683B68C3
:105D70005A6813469B001344233B00FA03F27B68E6
:105D80001B680A431A631BE07B681B68D96A3B687F
:105D90005A6813469B001344413B1F2202FA03F347
:105DA000DB4319403B6818683B685A6813469B0000
:105DB0001344413B00FA03F27B681B680A43DA6232
:105DC0003B681B68092B1CD97B681B68D9683B683A
:105DD0001A6813465B0013441E3B072202FA03F3C2
:105DE000DB4319403B6898683B681A6813465B00C0
:105DF00013441E3B00FA03F27B681B680A43DA6017
:105E000019E07B681B6819693B681A6813465B00D8
:105E10001344072202FA03F3DB4319403B689868F6
:105E20003B681A6813465B00134400FA03F27B6870
:105E30001B680A431A613B681B68102B03D03B6840
:105E40001B68112B32D17B681B681D4A934225D1F8
:105E50007B681B689B6803F40003002B26D17B68DA
:105E60001B689A687B681B6842F400029A603B6872
:105E70001B68102B1AD1134B1B68134AA2FB032378
:105E80009A0C13469B0013445B00BB6002E0BB68A6
:105E9000013BBB60BB68002BF9D107E07B689B6AC4
:105EA00043F020027B689A620123FB737B68002227
:105EB00083F82420FB7B18461437BD4680BC70470E
:105EC000002401405000002083DE1B4380B584B0D5
:105ED00000AF78600023FB607B681B689B6803F061
:105EE0000103012B2ED17B681B689A687B681B68B5
:105EF00022F001029A6000F083F8F8601BE000F0E5
:105F00007FF80246FB68D31A022B14D97B681B6802
:105F10009B6803F00103012B0DD17B689B6A43F062
:105F200010027B689A627B68DB6A43F001027B683F
:105F3000DA62012307E07B681B689B6803F00103BA
:105F4000012BDCD0002318461037BD4680BD000071
:105F500080B500AF084B1B68074A43F0100313607D
:105F6000032001F00FFA0F2000F008F8FFF74CFBB8
:105F70000023184680BD00BF0020024080B582B0DB
:105F800000AF7860124B1A68124B1B7819464FF419
:105F90007A73B3FBF1F3B2FBF3F3184601F027FA7F
:105FA0000346002B01D001230EE07B680F2B0AD89B
:105FB000002279684FF0FF3001F0EFF9064A7B6864
:105FC0001360002300E0012318460837BD4680BD5A
:105FD00050000020580000205400002080B400AF82
:105FE000054B1B781A46054B1B681344034A136084
:105FF00000BFBD4680BC7047580000202804002028
:1060000080B400AF024B1B681846BD4680BC704789
:106010002804002080B584B000AF7860FFF7F0FF5F
:10602000B8607B68FB60FB68B3F1FF3F05D00A4BAB
:106030001B781A46FB681344FB6000BFFFF7E0FFC4
:106040000246BB68D31AFA689A42F7D800BF00BF6D
:106050001037BD4680BD00BF5800002080B586B017
:1060600000AF78607B68002B01D1012372E27B686E
:106070001B6803F00103002B00F08780924B5B68E4
:1060800003F00C03042B0CD08F4B5B6803F00C0364
:10609000082B12D18C4B5B6803F48033B3F5803F3F
:1060A0000BD1894B1B6803F40033002B6CD07B6849
:1060B0005B68002B68D101234CE27B685B68B3F519
:1060C000803F06D1804B1B687F4A43F480331360C6
:1060D0002EE07B685B68002B0CD17B4B1B687A4AF7
:1060E00023F480331360784B1B68774A23F48023B2
:1060F00013601DE07B685B68B3F5A02F0CD1724B79
:106100001B68714A43F4802313606F4B1B686E4A0F
:1061100043F4803313600BE06B4B1B686A4A23F433
:1061200080331360684B1B68674A23F48023136035
:106130007B685B68002B13D0FFF762FF386108E0D3
:10614000FFF75EFF02463B69D31A642B01D9032394
:1061500000E25D4B1B6803F40033002BF0D014E029
:10616000FFF74EFF386108E0FFF74AFF02463B6940
:10617000D31A642B01D90323ECE1534B1B6803F4BE
:106180000033002BF0D100E000BF7B681B6803F0F8
:106190000203002B63D04C4B5B6803F00C03002B15
:1061A0000BD0494B5B6803F00C03082B1CD1464B0A
:1061B0005B6803F48033002B16D1434B1B6803F05C
:1061C0000203002B05D07B681B69012B01D0012342
:1061D000C0E13D4B1B6823F0F8027B685B69DB0084
:1061E000394913430B603AE07B681B69002B20D0D0
:1061F000364B01221A60FFF703FF386108E0FFF712
:10620000FFFE02463B69D31A022B01D90323A1E109
:106210002D4B1B6803F00203002BF0D02A4B1B68A8
:1062200023F0F8027B685B69DB00274913430B60AE
:1062300015E0264B00221A60FFF7E2FE386108E005
:10624000FFF7DEFE02463B69D31A022B01D9032376
:1062500080E11D4B1B6803F00203002BF0D17B682B
:106260001B6803F00803002B3AD07B689B69002B66
:1062700019D0174B01221A60FFF7C2FE386108E0FF
:10628000FFF7BEFE02463B69D31A022B01D9032356
:1062900060E10D4B5B6A03F00203002BF0D001209C
:1062A00000F0CEFA1CE00A4B00221A60FFF7A8FEAD
:1062B00038610FE0FFF7A4FE02463B69D31A022BB8
:1062C00008D9032346E100BF00100240000042420B
:1062D00080044242924B5B6A03F00203002BE9D137
:1062E0007B681B6803F00403002B00F0A6800023EA
:1062F000FB758B4BDB6903F08053002B0DD1884B72
:10630000DB69874A43F08053D361854BDB6903F037
:106310008053BB60BB680123FB75824B1B6803F491
:106320008073002B18D17F4B1B687E4A43F4807327
:106330001360FFF765FE386108E0FFF761FE024673
:106340003B69D31A642B01D9032303E1754B1B6806
:1063500003F48073002BF0D07B68DB68012B06D13F
:106360006F4B1B6A6E4A43F0010313622DE07B689A
:10637000DB68002B0CD16A4B1B6A694A23F00103CE
:106380001362674B1B6A664A23F0040313621CE026
:106390007B68DB68052B0CD1614B1B6A604A43F0BC
:1063A000040313625E4B1B6A5D4A43F001031362F0
:1063B0000BE05B4B1B6A5A4A23F001031362584BF4
:1063C0001B6A574A23F0040313627B68DB68002BC7
:1063D00015D0FFF715FE38610AE0FFF711FE0246FF
:1063E0003B69D31A41F28832934201D90323B1E0C9
:1063F0004B4B1B6A03F00203002BEED014E0FFF7B7
:10640000FFFD38610AE0FFF7FBFD02463B69D31A46
:1064100041F28832934201D903239BE0404B1B6A2F
:1064200003F00203002BEED1FB7D012B05D13C4B89
:10643000DB693B4A23F08053D3617B68DB69002B27
:1064400000F08780364B5B6803F00C03082B61D0AB
:106450007B68DB69022B46D1334B00221A60FFF7C1
:10646000CFFD386108E0FFF7CBFD02463B69D31A48
:10647000022B01D903236DE0294B1B6803F0007345
:10648000002BF0D17B681B6AB3F5803F08D1244B09
:106490005B6823F400327B689B68214913434B609F
:1064A0001F4B5B6823F474127B68196A7B685B6A14
:1064B0000B431B4913434B601B4B01221A60FFF730
:1064C0009FFD386108E0FFF79BFD02463B69D31A48
:1064D000022B01D903233DE0114B1B6803F000732D
:1064E000002BF0D035E0104B00221A60FFF788FD3A
:1064F000386108E0FFF784FD02463B69D31A022B9E
:1065000001D9032326E0064B1B6803F00073002B20
:10651000F0D11EE07B68DB69012B07D1012319E074
:106520000010024000700040600042420B4B5B686C
:10653000FB60FB6803F480327B681B6A9A4206D1D9
:10654000FB6803F470127B685B6A9A4201D00123F6
:1065500000E0002318461837BD4680BD00100240F9
:1065600080B584B000AF786039607B68002B01D1C2
:106570000123D0E06A4B1B6803F007033A689A4294
:1065800010D9674B1B6823F0070265493B6813432A
:106590000B60634B1B6803F007033A689A4201D013
:1065A0000123B8E07B681B6803F00203002B20D0B6
:1065B0007B681B6803F00403002B05D0594B5B6814
:1065C000584A43F4E06353607B681B6803F0080398
:1065D000002B05D0534B5B68524A43F46053536021
:1065E000504B5B6823F0F0027B689B684D49134376
:1065F0004B607B681B6803F00103002B40D07B6875
:106600005B68012B07D1474B1B6803F40033002B59
:1066100015D101237FE07B685B68022B07D1414BDA
:106620001B6803F00073002B09D1012373E03D4B7D
:106630001B6803F00203002B01D101236BE0394BEF
:106640005B6823F003027B685B68364913434B6049
:10665000FFF7D6FCF8600AE0FFF7D2FC0246FB68C1
:10666000D31A41F28832934201D9032353E02D4BD0
:106670005B6803F00C027B685B689B009A42EBD17D
:10668000274B1B6803F007033A689A4210D2244B49
:106690001B6823F0070222493B6813430B60204B21
:1066A0001B6803F007033A689A4201D0012332E0E5
:1066B0007B681B6803F00403002B08D0194B5B6850
:1066C00023F4E0627B68DB68164913434B607B6808
:1066D0001B6803F00803002B09D0124B5B6823F4FE
:1066E00060527B681B69DB000E4913434B6000F06E
:1066F00021F802460B4B5B681B0903F00F030A49A4
:10670000CB5C22FA03F3094A1360094B1B68184655
:10671000FFF734FC002318461037BD4680BD00BF8C
:1067200000200240001002400490000850000020A9
:106730005400002080B487B000AF0023FB6000232A
:10674000BB6000237B6100237B6000233B611E4B09
:106750005B68FB60FB6803F00C03042B02D0082B82
:1067600003D027E0194B3B6127E0FB689B0C03F04B
:106770000F03174AD35C7B60FB6803F48033002B64
:1067800010D0114B5B685B0C03F00103114AD35C22
:10679000BB607B680D4A03FB02F2BB68B2FBF3F3FC
:1067A0007B6104E07B680C4A02FB03F37B617B693D
:1067B0003B6102E0054B3B6100BF3B6918461C375B
:1067C000BD4680BC704700BF0010024000127A0036
:1067D0001C9000082C90000800093D0080B400AF18
:1067E000024B1B681846BD4680BC70475000002015
:1067F00080B500AFFFF7F2FF0246054B5B681B0A4E
:1068000003F007030349CB5C22FA03F3184680BD6B
:10681000001002401490000880B500AFFFF7DEFFC3
:106820000246054B5B68DB0A03F007030349CB5CB8
:1068300022FA03F3184680BD0010024014900008AD
:1068400080B485B000AF78600A4B1B680A4AA2FB8F
:1068500003235B0A7A6802FB03F3FB6000BFFB685B
:106860005A1EFA60002BF9D100BF00BF1437BD4695
:1068700080BC704750000020D34D621080B586B0B8
:1068800000AF786000233B610023FB607B681B68DE
:1068900003F00103002B7DD00023FB754F4BDB6918
:1068A00003F08053002B0DD14C4BDB694B4A43F076
:1068B0008053D361494BDB6903F08053BB60BB68F5
:1068C0000123FB75464B1B6803F48073002B18D122
:1068D000434B1B68424A43F480731360FFF790FBFD
:1068E000386108E0FFF78CFB02463B69D31A642B42
:1068F00001D903236DE03A4B1B6803F48073002B2E
:10690000F0D0364B1B6A03F44073FB60FB68002B2E
:106910002ED07B685B6803F44073FA689A4227D0F4
:106920002E4B1B6A23F44073FB602E4B01221A602E
:106930002C4B00221A60294AFB681362FB6803F0A3
:106940000103002B14D0FFF75BFB38610AE0FFF76F
:1069500057FB02463B69D31A41F28832934201D970
:10696000032336E01D4B1B6A03F00203002BEED01D
:106970001A4B1B6A23F440727B685B681749134308
:106980000B62FB7D012B05D1144BDB69134A23F00D
:106990008053D3617B681B6803F00203002B08D08F
:1069A0000E4B5B6823F440427B689B680B491343A2
:1069B0004B607B681B6803F01003002B08D0074B6B
:1069C0005B6823F480027B68DB68044913434B60F7
:1069D000002318461837BD4680BD00BF0010024096
:1069E000007000404004424280B48BB000AF786039
:1069F000396000237B6200233B6269E101227B6AEC
:106A000002FA03F3FB613B681B68FA691340BB6140
:106A1000BA69FB699A4240F058813B685B689A4AC0
:106A200093425ED0984A934275D8984A934258D080
:106A3000964A93426FD8964A934252D0944A9342D0
:106A400069D8944A93424CD0924A934263D8924A6E
:106A5000934246D0904A93425DD8122B2AD8122BEB
:106A600059D801A252F823F0E36A0008BD6A000871
:106A7000CF6A0008116B0008176B0008176B00083D
:106A8000176B0008176B0008176B0008176B0008DE
:106A9000176B0008176B0008176B0008176B0008CE
:106AA000176B0008176B0008176B0008C56A000811
:106AB000D96A0008794A934213D02CE03B68DB681E
:106AC0003B6229E03B68DB6804333B6224E03B68BF
:106AD000DB6808333B621FE03B68DB680C333B62DA
:106AE0001AE03B689B68002B02D104233B6213E051
:106AF0003B689B68012B05D108233B627B68FA69E0
:106B00001A6109E008233B627B68FA695A6103E075
:106B100000233B6200E000BFBB69FF2B01D87B680C
:106B200001E07B6804337B61BB69FF2B02D87B6A81
:106B30009B0002E07B6A083B9B003B617B691A6813
:106B40000F213B6901FA03F3DB431A40396A3B69C1
:106B500001FA03F31A437B691A603B685B6803F030
:106B60008053002B00F0B1804D4B9B694C4A43F0A1
:106B7000010393614A4B9B6903F00103BB60BB684F
:106B8000484A7B6A9B08023352F82330FB607B6AD9
:106B900003F003039B000F2202FA03F3DB43FA68BE
:106BA0001340FB607B68404A934213D07B683F4AA6
:106BB00093420DD07B683E4A934207D07B683D4AA2
:106BC000934201D1032306E0042304E0022302E000
:106BD000012300E000237A6A02F00302920093404E
:106BE000FA681343FB602F497B6A9B080233FA68FB
:106BF00041F823203B685B6803F48013002B06D028
:106C00002D4B9A682C49BB6913438B6006E02A4BD5
:106C10009A68BB69DB43284913408B603B685B681B
:106C200003F40013002B06D0234BDA682249BB691A
:106C30001343CB6006E0204BDA68BB69DB431E4997
:106C40001340CB603B685B6803F40033002B06D035
:106C5000194B5A681849BB6913434B6006E0164B41
:106C60005A68BB69DB43144913404B603B685B685F
:106C700003F48033002B21D00F4B1A680E49BB69F7
:106C800013430B6021E000BF000032100000311000
:106C9000000022100000211000001210000011104E
:106CA000001002400000014000080140000C0140BB
:106CB0000010014000140140000401400B4B1A6811
:106CC000BB69DB43094913400B607B6A01337B627C
:106CD0003B681A687B6A22FA03F3002B7FF48EAEBE
:106CE00000BF00BF2C37BD4680BC70470004014088
:106CF00080B483B000AF78600B467B8013467B7016
:106D00007B78002B03D07A887B681A6103E07B884C
:106D10001A047B681A6100BF0C37BD4680BC7047FF
:106D200080B485B000AF78600023FB607B68002BE7
:106D300001D1012343E07B681B681A46224B1344B0
:106D4000224AA2FB03231B099A007B681A647B6812
:106D50001F4ADA637B68022283F821207B681B6864
:106D60001B68FB60FB6823F47F5323F03003FB6058
:106D70007B685A687B689B681A437B68DB681A43A8
:106D80007B681B691A437B685B691A437B689B6954
:106D90001A437B68DB691343FA681343FB607B6823
:106DA0001B68FA681A607B6800229A637B6801227C
:106DB00083F821207B68002283F8202000231846D6
:106DC0001437BD4680BC7047F8FFFDBFCDCCCCCC9E
:106DD0000000024080B586B000AFF860B9607A600C
:106DE0003B600023FB75FB6893F82030012B01D139
:106DF00002234BE0FB68012283F82020FB6893F814
:106E00002130DBB2012B3AD1FB68022283F821202A
:106E1000FB6800229A63FB681B681A68FB681B68A2
:106E200022F001021A603B687A68B968F86800F0DD
:106E3000AFF9FB68DB6A002B08D0FB681B681A6897
:106E4000FB681B6842F00E021A600FE0FB681B68CB
:106E50001A68FB681B6822F004021A60FB681B6852
:106E60001A68FB681B6842F00A021A60FB681B681C
:106E70001A68FB681B6842F001021A6005E0FB68B3
:106E8000002283F820200223FB75FB7D184618376B
:106E9000BD4680BD80B584B000AF78600023FB7331
:106EA0007B6893F82130DBB2022B05D07B6804228B
:106EB0009A630123FB7351E07B681B681A687B6847
:106EC0001B6822F00E021A607B681B681A687B68D8
:106ED0001B6822F001021A607B681B68224A9342F9
:106EE00029D07B681B68214A934222D07B681B68AB
:106EF0001F4A93421AD07B681B681E4A934212D0E5
:106F00007B681B681C4A93420AD07B681B681B4A3B
:106F1000934202D14FF480130EE04FF080730BE0E8
:106F20004FF4803308E04FF4805305E04FF4807352
:106F300002E0102300E00123114A53607B68012224
:106F400083F821207B68002283F820207B685B6B1C
:106F5000002B03D07B685B6B78689847FB7B1846F7
:106F60001037BD4680BD00BF080002401C00024033
:106F70003000024044000240580002406C000240D1
:106F80000000024080B584B000AF78607B68DB6BA6
:106F90001B68FB607B681B681B68BB607B681B6CA5
:106FA00004229A40FB681340002B4FD0BB6803F0CB
:106FB0000403002B4AD07B681B681B6803F0200386
:106FC000002B07D17B681B681A687B681B6822F05E
:106FD00004021A607B681B68664A934229D07B686A
:106FE0001B68654A934222D07B681B68634A9342C0
:106FF0001AD07B681B68624A934212D07B681B6878
:10700000604A93420AD07B681B685F4A934202D170
:107010004FF480030EE04FF080630BE04FF48023C9
:1070200008E04FF4804305E04FF4806302E0402322
:1070300000E00423554A53607B68DB6A002B00F0B4
:1070400094807B68DB6A786898478EE07B681B6C6D
:1070500002229A40FB681340002B56D0BB6803F015
:107060000203002B51D07B681B681B6803F02003D0
:10707000002B0BD17B681B681A687B681B6822F0A9
:107080000A021A607B68012283F821207B681B6852
:10709000384A934229D07B681B68374A934222D0F2
:1070A0007B681B68354A93421AD07B681B68344A58
:1070B000934212D07B681B68324A93420AD07B68A5
:1070C0001B68314A934202D14FF400130EE04FF097
:1070D00000730BE04FF4003308E04FF4005305E079
:1070E0004FF4007302E0202300E00223274A53609C
:1070F0007B68002283F820207B689B6A002B34D0B9
:107100007B689B6A786898472FE07B681B6C082235
:107110009A40FB681340002B28D0BB6803F008039B
:10712000002B23D07B681B681A687B681B6822F0E1
:107130000E021A607B681A6C7B68DB6B012101FA16
:1071400002F25A607B6801229A637B68012283F80D
:1071500021207B68002283F820207B681B6B002B9A
:1071600004D07B681B6B7868984700BF00BF10375E
:10717000BD4680BD080002401C00024030000240B5
:1071800044000240580002406C00024000000240EF
:1071900080B485B000AFF860B9607A603B60FB688E
:1071A0001A6CFB68DB6B012101FA02F25A60FB6882
:1071B0001B683A685A60FB685B68102B08D1FB6853
:1071C0001B687A689A60FB681B68BA68DA6007E037
:1071D000FB681B68BA689A60FB681B687A68DA60AB
:1071E00000BF1437BD4680BC7047000080B485B036
:1071F00000AF78607B6803F00703FB600C4BDB6833
:10720000BB60BA684FF6FF031340BB60FB681A020D
:10721000BB68134343F0BF6343F40033BB60044ACD
:10722000BB68D36000BF1437BD4680BC704700BF49
:1072300000ED00E080B400AF044BDB681B0A03F0F4
:1072400007031846BD4680BC704700BF00ED00E054
:1072500080B483B000AF0346FB7197F90730002B71
:107260000BDBFB7903F01F02064997F907305B0936
:10727000012000FA02F241F8232000BF0C37BD467E
:1072800080BC704700E100E080B483B000AF0346EB
:107290003960FB7197F90730002B0ADB3B68DAB2E3
:1072A0000C4997F907301201D2B20B4483F800233E
:1072B0000AE03B68DAB20849FB7903F00F03043BAC
:1072C0001201D2B20B441A7600BF0C37BD4680BC07
:1072D000704700BF00E100E000ED00E080B489B03D
:1072E00000AFF860B9607A60FB6803F00703FB61E8
:1072F000FB69C3F10703042B28BF0423BB61FB69AF
:107300000433062B02D9FB69033B00E000237B61B9
:107310004FF0FF32BB6902FA03F3DA43BB681A404D
:107320007B699A404FF0FF317B6901FA03F3D9433F
:107330007B680B40134318462437BD4680BC70471A
:1073400080B582B000AF78607B68013BB3F1807F8D
:1073500001D301230FE00A4A7B68013B53600F21F0
:107360004FF0FF30FFF790FF054B00229A60044B6F
:1073700007221A60002318460837BD4680BD00BFAB
:1073800010E000E080B582B000AF78607868FFF769
:107390002DFF00BF0837BD4680BD80B586B000AF69
:1073A0000346B9607A60FB7300237B61FFF742FFFD
:1073B00078617A68B9687869FFF790FF024697F9B3
:1073C0000F3011461846FFF75FFF00BF1837BD4664
:1073D00080BD80B582B000AF0346FB7197F90730DE
:1073E0001846FFF735FF00BF0837BD4680BD80B5A2
:1073F00082B000AF78607868FFF7A2FF03461846B6
:107400000837BD4680BD000080B584B000AF78600D
:107410007B68002B01D101232BE17B6893F83D3081
:10742000DBB2002B06D17B68002283F83C20786811
:10743000FDF768FD7B68242283F83D207B681B688C
:107440001A687B681B6822F001021A607B681B685F
:107450001A687B681B6842F400421A607B681B68EC
:107460001A687B681B6822F400421A60FFF7C0F9B3
:10747000F8607B685B68814A934207D8FB68804A62
:10748000934294BF01230023DBB206E0FB687D4AF0
:10749000934294BF01230023DBB2002B01D00123D0
:1074A000E7E0FB68784AA2FB03239B0CBB607B6888
:1074B0001B685B6823F03F017B681B68BA680A435E
:1074C0005A607B681B681B6A23F03F017B685B681E
:1074D0006A4A934202D8BB68013309E0BB684FF4A3
:1074E000967202FB03F3694AA2FB03239B09013353
:1074F0007A6812680B4313627B681B68DB6923F4AC
:107500004F4222F0FF027B685B685C498B4219D8CE
:10751000FB68591E7B685B685B00B1FBF3F3591C89
:1075200040F6FC730B40002B0AD0FB68591E7B68A9
:107530005B685B00B1FBF3F30133C3F30B0351E072
:1075400004234FE07B689B68002B11D1FB68581E19
:107550007B6859680B465B000B44B0FBF3F30133C7
:10756000C3F30B03002B0CBF01230023DBB212E09B
:10757000FB68581E7B6859680B469B000B449900BA
:107580000B44B0FBF3F30133C3F30B03002B0CBF2D
:1075900001230023DBB2002B01D0012322E07B6812
:1075A0009B68002B0ED1FB68581E7B6859680B4600
:1075B0005B000B44B0FBF3F30133C3F30B0343F461
:1075C00000430FE0FB68581E7B6859680B469B0020
:1075D0000B4499000B44B0FBF3F30133C3F30B03EB
:1075E00043F44043796809681343CB617B681B68A7
:1075F0001B6823F0C0017B68DA697B681B6A1A4349
:107600007B681B680A431A607B681B689B6823F4CD
:10761000034323F0FF037A6811697A68D268114343
:107620007A6812680B4393607B681B68DB6823F001
:10763000FF017B685A697B689B691A437B681B68FA
:107640000A43DA607B681B681A687B681B6842F033
:1076500001021A607B6800221A647B68202283F88A
:107660003D207B6800221A637B68002283F83E205D
:10767000002318461037BD4680BD00BFA08601001C
:107680007F841E00FF083D0083DE1B43D34D621044
:1076900080B582B000AF78607B68002B01D10123F8
:1076A00041E07B6893F83D30DBB2002B06D17B686C
:1076B000002283F83C207868FDF704FE7B680222F4
:1076C00083F83D207B681A687B68043319461046AE
:1076D00000F04EFE7B68012283F846207B68012281
:1076E00083F83E207B68012283F83F207B680122DB
:1076F00083F840207B68012283F841207B680122C7
:1077000083F842207B68012283F843207B680122B2
:1077100083F844207B68012283F845207B6801229E
:1077200083F83D20002318460837BD4680BD80B54C
:1077300082B000AF78607B68002B01D1012341E06B
:107740007B6893F83D30DBB2002B06D17B680022CA
:1077500083F83C20786800F039F87B68022283F8CF
:107760003D207B681A687B6804331946104600F098
:10777000FFFD7B68012283F846207B68012283F8A5
:107780003E207B68012283F83F207B68012283F83A
:1077900040207B68012283F841207B68012283F826
:1077A00042207B68012283F843207B68012283F812
:1077B00044207B68012283F845207B68012283F8FE
:1077C0003D20002318460837BD4680BD80B483B0F5
:1077D00000AF786000BF0C37BD4680BC704700002A
:1077E00080B586B000AFF860B9607A607B80002316
:1077F000FB75BB68002B09D1FB6893F83E30DBB208
:10780000022B0CBF01230023DBB222E0BB68042B58
:1078100009D1FB6893F83F30DBB2022B0CBF012388
:107820000023DBB215E0BB68082B09D1FB6893F895
:107830004030DBB2022B0CBF01230023DBB208E097
:10784000FB6893F84130DBB2022B0CBF012300230D
:10785000DBB2002B01D0022353E1BB68002B09D11E
:10786000FB6893F83E30DBB2012B0CBF01230023F1
:10787000DBB222E0BB68042B09D1FB6893F83F30F0
:10788000DBB2012B0CBF01230023DBB215E0BB6888
:10789000082B09D1FB6893F84030DBB2012B0CBFF9
:1078A00001230023DBB208E0FB6893F84130DBB230
:1078B000012B0CBF01230023DBB2002B24D07B68FB
:1078C000002B02D07B88002B01D1012319E1BB687A
:1078D000002B04D1FB68022283F83E2016E0BB682F
:1078E000042B04D1FB68022283F83F200EE0BB6822
:1078F000082B04D1FB68022283F8402006E0FB68D5
:10790000022283F8412001E00123FAE0BB680C2B3E
:1079100000F2AE8001A252F823F000BF51790008B6
:10792000717A0008717A0008717A00089979000864
:10793000717A0008717A0008717A0008E17900080C
:10794000717A0008717A0008717A0008297A0008B3
:10795000FB685B6A6D4A9A62FB685B6A6C4ADA6232
:10796000FB685B6A6B4A1A63FB68586A7968FB6854
:107970001B6834331A467B88FFF72CFA0346002B2A
:1079800001D00123BDE0FB681B68DA68FB681B6857
:1079900042F40072DA606EE0FB689B6A5B4A9A62AE
:1079A000FB689B6A5A4ADA62FB689B6A594A1A6307
:1079B000FB68986A7968FB681B6838331A467B88CD
:1079C000FFF708FA0346002B01D0012399E0FB687A
:1079D0001B68DA68FB681B6842F48062DA604AE080
:1079E000FB68DB6A494A9A62FB68DB6A484ADA62EA
:1079F000FB68DB6A474A1A63FB68D86A7968FB68E8
:107A00001B683C331A467B88FFF7E4F90346002BDA
:107A100001D0012375E0FB681B68DA68FB681B680E
:107A200042F40062DA6026E0FB681B6B374A9A6218
:107A3000FB681B6B364ADA62FB681B6B354A1A63BC
:107A4000FB68186B7968FB681B6840331A467B88B3
:107A5000FFF7C0F90346002B01D0012351E0FB687A
:107A60001B68DA68FB681B6842F48052DA6002E047
:107A70000123FB7500BFFB7D002B41D1FB681B6818
:107A80000122B968184601F00CF8FB681B68224A0D
:107A9000934207D1FB681B685A6CFB681B6842F471
:107AA00000425A64FB681B681B4A93420ED0FB6875
:107AB0001B68B3F1804F09D0FB681B68174A9342DB
:107AC00004D0FB681B68164A934211D1FB681B68FF
:107AD0009B6803F007033B613B69062B10D0FB68F2
:107AE0001B681A68FB681B6842F001021A6007E015
:107AF000FB681B681A68FB681B6842F001021A6089
:107B0000FB7D18461837BD4680BD00BF6182000866
:107B100009830008CF810008002C014000040040C8
:107B20000008004080B584B000AF78603960002361
:107B3000FB733B680C2B55D801A252F823F000BF11
:107B4000757B0008E57B0008E57B0008E57B000805
:107B5000917B0008E57B0008E57B0008E57B0008D9
:107B6000AD7B0008E57B0008E57B0008E57B0008AD
:107B7000C97B00087B681B68DA687B681B6822F495
:107B80000072DA607B685B6A1846FFF783F92CE0C5
:107B90007B681B68DA687B681B6822F48062DA60A5
:107BA0007B689B6A1846FFF775F91EE07B681B68C7
:107BB000DA687B681B6822F40062DA607B68DB6A43
:107BC0001846FFF767F910E07B681B68DA687B6886
:107BD0001B6822F48052DA607B681B6B1846FFF743
:107BE00059F902E00123FB7300BFFB7B002B57D147
:107BF0007B681B6800223968184600F052FF7B68DA
:107C00001B682A4A934217D17B681B681A6A41F2A3
:107C100011131340002B0FD17B681B681A6A40F2C6
:107C200044431340002B07D17B681B685A6C7B6868
:107C30001B6822F400425A647B681B681A6A41F28E
:107C400011131340002B0FD17B681B681A6A40F296
:107C500044431340002B07D17B681B681A687B687C
:107C60001B6822F001021A603B68002B04D17B687C
:107C7000012283F83E2013E03B68042B04D17B688B
:107C8000012283F83F200BE03B68082B04D17B687E
:107C9000012283F8402003E07B68012283F8412021
:107CA000FB7B18461037BD4680BD00BF002C01404D
:107CB00080B582B000AF78607B68002B01D10123D2
:107CC00041E07B6893F83D30DBB2002B06D17B6846
:107CD000002283F83C20786800F039F87B680222A3
:107CE00083F83D207B681A687B6804331946104688
:107CF00000F03EFB7B68012283F846207B6801226E
:107D000083F83E207B68012283F83F207B680122B4
:107D100083F840207B68012283F841207B680122A0
:107D200083F842207B68012283F843207B6801228C
:107D300083F844207B68012283F845207B68012278
:107D400083F83D20002318460837BD4680BD80B427
:107D500083B000AF786000BF0C37BD4680BC704771
:107D600080B586B000AFF860B9607A600023FB751B
:107D7000FB6893F83C30012B01D1022388E0FB68BB
:107D8000012283F83C207B68002B1BD1FB6818681C
:107D9000BB681968BB685A68BB68DB6800F0DEFC2A
:107DA000FB681B689A69FB681B6822F00C029A61E9
:107DB000FB681B689969BB689A68FB681B680A4383
:107DC0009A6160E07B68042B1CD1FB681868BB6873
:107DD0001968BB685A68BB68DB6800F047FDFB6840
:107DE0001B689A69FB681B6822F440629A61FB6811
:107DF0001B689969BB689B681A02FB681B680A4389
:107E00009A6140E07B68082B1BD1FB681868BB684F
:107E10001968BB685A68BB68DB6800F092FDFB68B4
:107E20001B68DA69FB681B6822F00C02DA61FB68E8
:107E30001B68D969BB689A68FB681B680A43DA61EA
:107E400021E07B680C2B1CD1FB681868BB681968A3
:107E5000BB685A68BB68DB6800F0AEFDFB681B6856
:107E6000DA69FB681B6822F44062DA61FB681B6810
:107E7000D969BB689B681A02FB681B680A43DA6110
:107E800001E00123FB75FB68002283F83C20FB7DA9
:107E900018461837BD4680BD80B586B000AFF86083
:107EA000B9607A600023FB75FB6893F83C30012BC6
:107EB00001D10223AEE0FB68012283F83C207B68FD
:107EC0000C2B00F29F8001A252F823F0017F0008E2
:107ED000058000080580000805800008417F000833
:107EE000058000080580000805800008837F0008E1
:107EF000058000080580000805800008C37F000891
:107F0000FB681B68B968184600F0A0FAFB681B689C
:107F10009A69FB681B6842F008029A61FB681B685B
:107F20009A69FB681B6822F004029A61FB681B686F
:107F30009969BB681A69FB681B680A439A6164E027
:107F4000FB681B68B968184600F0E6FAFB681B6816
:107F50009A69FB681B6842F400629A61FB681B68BF
:107F60009A69FB681B6822F480629A61FB681B684F
:107F70009969BB681B691A02FB681B680A439A610E
:107F800043E0FB681B68B968184600F02FFBFB68EC
:107F90001B68DA69FB681B6842F00802DA61FB685B
:107FA0001B68DA69FB681B6822F00402DA61FB686F
:107FB0001B68D969BB681A69FB681B680A43DA61E8
:107FC00023E0FB681B68B968184600F079FBFB6882
:107FD0001B68DA69FB681B6842F40062DA61FB68BF
:107FE0001B68DA69FB681B6822F48062DA61FB684F
:107FF0001B68D969BB681B691A02FB681B680A43C6
:10800000DA6102E00123FB7500BFFB68002283F800
:108010003C20FB7D18461837BD4680BD80B584B036
:1080200000AF786039600023FB737B6893F83C30C5
:10803000012B01D10223B4E07B68012283F83C20AC
:108040007B68022283F83D207B681B689B68BB60CD
:10805000BB6823F07703BB60BB6823F47F43BB603E
:108060007B681B68BA689A603B681B68B3F5005F61
:108070003ED0B3F5005F00F28780B3F5805F00F07B
:108080008680B3F5805F7FD8702B1AD0702B7BD899
:10809000602B50D0602B77D8502B3CD0502B73D80E
:1080A000402B58D0402B6FD8302B64D0302B6BD85E
:1080B000202B60D0202B67D8002B5CD0102B5AD0FF
:1080C00062E07B6818683B6899683B685A683B685F
:1080D000DB6800F0C7FC7B681B689B68BB60BB6803
:1080E00043F07703BB607B681B68BA689A604FE017
:1080F0007B6818683B6899683B685A683B68DB682E
:1081000000F0B0FC7B681B689A687B681B6842F4CF
:1081100080429A603CE07B6818683B6859683B681D
:10812000DB681A4600F074FB7B681B685021184618
:1081300000F07EFC2CE07B6818683B6859683B685F
:10814000DB681A4600F0CEFB7B681B68602118468E
:1081500000F06EFC1CE07B6818683B6859683B685F
:10816000DB681A4600F054FB7B681B684021184608
:1081700000F05EFC0CE07B681A683B681B681946DF
:10818000104600F055FC03E00123FB7300E000BF44
:108190007B68012283F83D207B68002283F83C2025
:1081A000FB7B18461037BD4680BD80B483B000AF5E
:1081B000786000BF0C37BD4680BC704780B483B088
:1081C00000AF786000BF0C37BD4680BC704780B5FB
:1081D00084B000AF78607B685B6AFB60FB685B6AB9
:1081E0007A689A4207D1FB6801221A77FB6801225C
:1081F00083F83E202AE0FB689B6A7A689A4207D19E
:10820000FB6802221A77FB68012283F83F201DE0F9
:10821000FB68DB6A7A689A4207D1FB6804221A7706
:10822000FB68012283F8402010E0FB681B6B7A6832
:108230009A4207D1FB6808221A77FB68012283F86B
:10824000412003E0FB68012283F83D20F868FFF736
:10825000B5FFFB6800221A7700BF1037BD4680BD0E
:1082600080B584B000AF78607B685B6AFB60FB68B8
:108270005B6A7A689A420BD1FB6801221A777B68A5
:108280009B69002B36D1FB68012283F83E2031E048
:10829000FB689B6A7A689A420BD1FB6802221A77C4
:1082A0007B689B69002B25D1FB68012283F83F2066
:1082B00020E0FB68DB6A7A689A420BD1FB680422F3
:1082C0001A777B689B69002B14D1FB68012283F825
:1082D00040200FE0FB681B6B7A689A420AD1FB686A
:1082E00008221A777B689B69002B03D1FB68012267
:1082F00083F84120F868FDF7F9FBFB6800221A7744
:1083000000BF1037BD4680BD80B584B000AF786037
:108310007B685B6AFB60FB685B6A7A689A4203D1A0
:10832000FB6801221A7719E0FB689B6A7A689A4217
:1083300003D1FB6802221A7710E0FB68DB6A7A68D7
:108340009A4203D1FB6804221A7707E0FB681B6B93
:108350007A689A4202D1FB6808221A77F868FFF718
:1083600024FFFB6800221A7700BF1037BD4680BD8E
:1083700080B485B000AF786039607B681B68FB60B3
:108380007B682F4A93420BD07B68B3F1804F07D0B4
:108390007B682C4A934203D07B682B4A934208D1D6
:1083A000FB6823F07003FB603B685B68FA6813436B
:1083B000FB607B68224A93420BD07B68B3F1804F0D
:1083C00007D07B681F4A934203D07B681E4A9342C2
:1083D00008D1FB6823F44073FB603B68DB68FA68F4
:1083E0001343FB60FB6823F080023B685B69134327
:1083F000FB607B68FA681A603B689A687B68DA629F
:108400003B681A687B689A627B680D4A934203D185
:108410003B681A697B681A637B6801225A617B6832
:108420001B6903F00103002B05D07B681B6923F057
:1084300001027B681A6100BF1437BD4680BC7047DB
:10844000002C0140000400400008004080B487B0C8
:1084500000AF786039607B681B6A7B617B681B6A50
:1084600023F001027B681A627B685B683B617B6872
:108470009B69FB60FB6823F07003FB60FB6823F0E3
:108480000303FB603B681B68FA681343FB607B696E
:1084900023F002037B613B689B687A6913437B612D
:1084A0007B681C4A93420CD17B6923F008037B61F3
:1084B0003B68DB687A6913437B617B6923F00403C3
:1084C0007B617B68134A934211D13B6923F480732B
:1084D0003B613B6923F400733B613B685B693A692C
:1084E00013433B613B689B693A6913433B617B687B
:1084F0003A695A607B68FA689A613B685A687B6897
:108500005A637B687A691A6200BF1C37BD4680BC1B
:10851000704700BF002C014080B487B000AF786086
:1085200039607B681B6A7B617B681B6A23F01002E1
:108530007B681A627B685B683B617B689B69FB6058
:10854000FB6823F4E043FB60FB6823F44073FB60AB
:108550003B681B681B02FA681343FB607B6923F0CE
:1085600020037B613B689B681B017A6913437B6135
:108570007B681D4A93420DD17B6923F080037B61A8
:108580003B68DB681B017A6913437B617B6923F0DD
:1085900040037B617B68144A934213D13B6923F407
:1085A00080633B613B6923F400633B613B685B692B
:1085B0009B003A6913433B613B689B699B003A69A6
:1085C00013433B617B683A695A607B68FA689A6139
:1085D0003B685A687B689A637B687A691A6200BF55
:1085E0001C37BD4680BC7047002C014080B487B06A
:1085F00000AF786039607B681B6A7B617B681B6AAF
:1086000023F480727B681A627B685B683B617B68DD
:10861000DB69FB60FB6823F07003FB60FB6823F001
:108620000303FB603B681B68FA681343FB607B69CC
:1086300023F400737B613B689B681B027A691343D8
:108640007B617B681D4A93420DD17B6923F40063F3
:108650007B613B68DB681B027A6913437B617B6942
:1086600023F480637B617B68144A934213D13B6996
:1086700023F480533B613B6923F400533B613B6827
:108680005B691B013A6913433B613B689B691B01B2
:108690003A6913433B617B683A695A607B68FA68C0
:1086A000DA613B685A687B68DA637B687A691A62C8
:1086B00000BF1C37BD4680BC704700BF002C014086
:1086C00080B487B000AF786039607B681B6A3B611B
:1086D0007B681B6A23F480527B681A627B685B6844
:1086E0007B617B68DB69FB60FB6823F4E043FB6034
:1086F000FB6823F44073FB603B681B681B02FA684D
:108700001343FB603B6923F400533B613B689B6868
:108710001B033A6913433B617B680F4A934209D1BB
:108720007B6923F480437B613B685B699B017A69C9
:1087300013437B617B687A695A607B68FA68DA6107
:108740003B685A687B681A647B683A691A6200BFA2
:108750001C37BD4680BC7047002C014080B487B0F8
:1087600000AFF860B9607A603B60FB681B6A3B61F0
:10877000FB681B6A23F00102FB681A62FB689B69B5
:108780007B61FB681F4A93420BD0FB68B3F1804FBB
:1087900007D0FB681C4A934203D0FB681B4A9342F4
:1087A00001D1012300E00023002B08D07B6923F0D6
:1087B00003037B617A697B6813437B6103E07B6918
:1087C00043F001037B617B6923F0F0037B613B682D
:1087D0001B01DBB27A6913437B613B6923F00A0317
:1087E0003B61BB6803F00A033A6913433B61FB68D2
:1087F0007A699A61FB683A691A6200BF1C37BD4604
:1088000080BC7047002C014000040040000800407C
:1088100080B487B000AFF860B9607A60FB681B6A0B
:108820007B61FB681B6A23F00102FB681A62FB682C
:108830009B693B613B6923F0F0033B617B681B0153
:108840003A6913433B617B6923F00A037B617A69D0
:10885000BB6813437B61FB683A699A61FB687A697C
:108860001A6200BF1C37BD4680BC704780B487B019
:1088700000AFF860B9607A603B60FB681B6A7B619F
:10888000FB681B6A23F01002FB681A62FB689B6995
:108890003B613B6923F440733B617B681B023A698F
:1088A00013433B613B6923F470433B613B681B030B
:1088B0009BB23A6913433B617B6923F0A0037B6160
:1088C000BB681B0103F0A0037A6913437B61FB685B
:1088D0003A699A61FB687A691A6200BF1C37BD4623
:1088E00080BC704780B487B000AFF860B9607A6030
:1088F000FB681B6A7B61FB681B6A23F01002FB6844
:108900001A62FB689B693B613B6923F470433B61DE
:108910007B681B033A6913433B617B6923F0A00327
:108920007B61BB681B017A6913437B61FB683A6911
:108930009A61FB687A691A6200BF1C37BD4680BC29
:10894000704780B487B000AFF860B9607A603B6070
:10895000FB681B6A7B61FB681B6A23F48072FB68FF
:108960001A62FB68DB693B613B6923F003033B61EF
:108970003A697B6813433B613B6923F0F0033B6139
:108980003B681B01DBB23A6913433B617B6923F40B
:1089900000737B61BB681B0203F400737A691343A5
:1089A0007B61FB683A69DA61FB687A691A6200BF29
:1089B0001C37BD4680BC704780B487B000AFF860FC
:1089C000B9607A603B60FB681B6A7B61FB681B6A6D
:1089D00023F48052FB681A62FB68DB693B613B69E8
:1089E00023F440733B617B681B023A6913433B618C
:1089F0003B6923F470433B613B681B039BB23A69BC
:108A000013433B617B6923F400537B61BB681B0309
:108A100003F400537A6913437B61FB683A69DA61B6
:108A2000FB687A691A6200BF1C37BD4680BC70477C
:108A300080B485B000AF786039607B689B68FB606C
:108A4000FB6823F07003FB603A68FB68134343F054
:108A50000703FB607B68FA689A6000BF1437BD4665
:108A600080BC704780B487B000AFF860B9607A60AE
:108A70003B60FB689B687B617B6923F47F437B6180
:108A80003B681A027B681A43BB6813437A69134335
:108A90007B61FB687A699A6000BF1C37BD4680BC69
:108AA000704780B487B000AFF860B9607A60BB6887
:108AB00003F01F03012202FA03F37B61FB681A6AC9
:108AC0007B69DB431A40FB681A62FB681A6ABB6861
:108AD00003F01F03796801FA03F31A43FB681A6273
:108AE00000BF1C37BD4680BC7047000080B485B015
:108AF00000AF786039607B6893F83C30012B01D17E
:108B0000022346E07B68012283F83C207B68022236
:108B100083F83D207B681B685B68FB607B681B6893
:108B20009B68BB60FB6823F07003FB603B681B68BD
:108B3000FA681343FB607B681B68FA685A607B68BD
:108B40001B68164A93420ED07B681B68B3F1804FB6
:108B500009D07B681B68124A934204D07B681B686B
:108B6000104A93420CD1BB6823F08003BB603B6882
:108B70005B68BA681343BB607B681B68BA689A601D
:108B80007B68012283F83D207B68002283F83C202B
:108B9000002318461437BD4680BC7047002C0140A6
:108BA000000400400008004080B582B000AF78604B
:108BB0007B68002B01D1012342E07B6893F84130B0
:108BC000DBB2002B06D17B68002283F84020786856
:108BD000FCF79EFC7B68242283F841207B681B689D
:108BE000DA687B681B6822F40052DA60786800F06B
:108BF0002BF87B681B681A697B681B6822F490421B
:108C00001A617B681B685A697B681B6822F02A021C
:108C10005A617B681B68DA687B681B6842F4005203
:108C2000DA607B6800225A647B68202283F8412046
:108C30007B68202283F842207B6800225A6300234D
:108C400018460837BD4680BD80B584B000AF786057
:108C50007B681B681B6923F440517B68DA687B687A
:108C60001B680A431A617B689A687B681B691A4310
:108C70007B685B691343BB607B681B68DB6823F41C
:108C8000B05323F00C037A681268B9680B43D360C1
:108C90007B681B685B6923F440717B689A697B6819
:108CA0001B680A435A617B681B682C4A934203D1B4
:108CB000FDF7B2FDF86002E0FDF79AFDF860FA6892
:108CC00013469B0013449A001A447B685B689B0020
:108CD000B2FBF3F3224AA2FB03235B091901FA68F2
:108CE00013469B0013449A001A447B685B689B0000
:108CF000B2FBF3F21A4BA3FB02035B09642000FBF7
:108D000003F3D31A1B013233154AA2FB03235B0979
:108D100003F0F0031944FA6813469B0013449A00C9
:108D20001A447B685B689B00B2FBF3F20C4BA3FB1D
:108D300002035B09642000FB03F3D31A1B013233E7
:108D4000074AA2FB03235B0903F00F027B681B6841
:108D50000A449A6000BF1037BD4680BD003801400C
:108D60001F85EB51014B1868704700BF4C00002075
:108D70002DE9F8438046894616461F4600F020F844
:108D8000324604460D463B4640464946FBF756FEF2
:108D900090B90022002330463946FBF71DFE58B13A
:108DA000FFF7E0FF2123002203600023104619464D
:108DB000FBF7B4FC04460D4620462946BDE8F8837F
:108DC0002DE9F04723F0004784461D460846194622
:108DD00057EA02031446164696460CD07B4B20F009
:108DE00000499945824606DC53421343784A47EAD4
:108DF000D37393420DD905460B4622466046294659
:108E0000FBF762FB02460B46FBF788FC84460846EC
:108E10000EE0B945E046614600F000440DDC07DB9A
:108E2000B44505D309D16B4B03EB1473D3E900C0F0
:108E3000034660461946BDE8F087654A1AEA020F04
:108E400049D1B9F1000F3ED143466348002B37DCCE
:108E500015424FD1002F46D133465F4A002B3FDCED
:108E60005E4B98424ADBCAF3130343F48013DFF8E6
:108E70006CC1624557DBC5F3130545F48015801AB4
:108E80005E1BA1EB0E07002863D1714538BF06F1C8
:108E9000FF36002EA4BF3946334653EA0100C2D044
:108EA000B3F5801F6ADB4D4882426DDBA3F580136A
:108EB000234302F2FF3243EA02558C462846B7E7C5
:108EC00001385B00C2E745484FEAC923002BBFDDEC
:108ED00001385B00FAE74FEA2950A0F2FF30B7E70C
:108EE000013A5B00BAE73D4AFB02002BB8DD013ACC
:108EF0005B00FAE73A15A2F2FF32B1E7A3EB000CF0
:108F0000BCF11F0F09DC00F21E4309FA0CF128FA2C
:108F100003F30B4308FA0CF1A9E7314B00211B1AAC
:108F200008FA03F3A3E7ACEB020CBCF11F0F09DC5A
:108F300002F21E4507FA0CF726FA05F53D4306FA3C
:108F40000CFE9CE7264D4FF0000EAD1A06FA05F513
:108F500095E7714538BF06F1FF36002E05DACE0FD2
:108F600006EB4303490001388AE756EA07033FF45A
:108F70005AAFFB0F03EB46037900F4E7C80F00EB91
:108F800043034900013A8BE7801A14280ADC02F2F5
:108F90001E4203FA02F2C1400A430341104643EA6B
:108FA000040133E71F2807DC02F21E42C14003FA26
:108FB00002F20A432346F1E7C2F17F4202F57F0243
:108FC00002F57B42E23243FA02F2F3E7FFFFEF7F62
:108FD0000000F07F30900008EDFBFFFF02FCFFFF78
:108FE000E2FBFFFFF8B500BFF8BC08BC9E46704727
:0C8FF000F8B500BFF8BC08BC9E467047F6
:109000000F006432000000000000000001020304B1
:10901000060708090000000001020304020304051A
:10902000060708090A0B0C0D0E0F101001020000B4
:1090300000000000000000000000000000000080B0
:0490400035410008AE
:0490440011410008CE
:109048000000000078000020E00000204801002017
:109058000000000000000000000000000000000008
:1090680000000000000000000000000000000000F8
:1090780000000000000000000000000000000000E8
:1090880000000000000000000000000000000020B8
:0C90980000127A0010000000010000002F
:040000050800566D2C
:00000001FF
